:10047B0053554E004D4F4E005455450057454400C3
:10048B005448550046524900534154003A002F003E
:10049B002F323000FF047BFF047FFF0483FF0487B0
:0904AB00FF048BFF048FFF049392
:10054800E4FDFCC3ED9FEC9E5015E4FBFA0BBB00E9
:0F055800010AEB647A4A70F50DBD00010C80E4D6
:010567002271
:10056800E4FDFCC3ED9FEC9E5015E4FBFA0BBB00C9
:0F057800010AEB647A4A70F50DBD00010C80E4B6
:010587002251
:0305E60012058873
:1005E900D2947F037E00120568C2947F05020568D4
:10058800EF139293EFC313139292EF1313543F1385
:0C0598009291EF131313541F1392902242
:1005F900A907E9C4540FFF1205E6AF0112058802E5
:0206090005E901
:10043D00E4FF1205887FC87E00120548C296C2955A
:10044D00C2947F031205E61205E91205E97F021237
:10045D0005881205E97F2C1205F97F801205F97FB9
:0E046D000C1205F97F061205F97F010205F950
:10050500ED7007EF2480F5118005EF24C0F5117F0C
:10051500037E00120548AF111205F97F017E000226
:02052500054887
:05064F007F010205F926
:0C05D20075F00A84E5F02430FFE433FEED
:0805DE00D2961205F9C2962223
:0604B4007BFF7A0479973A
:1004BA008B118A128913AB11AA12A913120354FFC2
:1004CA0060143395E0FE1205DE74012513F513E47A
:0704DA003512F51280E0224B
:1000030012065412060B12043D7514007515007583
:10001300160D75170075180075190E751A00751BE6
:1000230000751C0F7B007A00790C1201FAE50F7042
:100033001A751518D200FB7D1AFC7F021202C975CE
:1000430014137B017D167F031203D47514007515F9
:100053000075160975170075180075190A751A00C9
:10006300751B00751C0B7B007A00790812011C8537
:100073000A10E4FDFF120505E50875F00A84120570
:10008300D8E5081205D21204B4E50975F00A841202
:1000930005D8E5091205D21204B4E50A75F00A84FD
:1000A3001205D8E50A1205D27514007515007516E8
:1000B3000D75170075180075190E751A00751B005C
:1000C300751C0F7B007A00790C1201FA7D01E4FFA5
:1000D300120505E50D75F00A841205D8E50D120524
:1000E300D27BFF7A0479991204BAE50E75F00A847B
:1000F3001205D8E50E1205D27BFF7A04799B120410
:10010300BAE50F75F00A841205D8E50F1205D27F00
:09011300E87E0312054802004ECB
:0F060B00E4FF1204E1AD0753057FE4FF0205A4ED
:1005A4008F118D121206337FD01205BDAF111205C3
:0905B400BDAF121205BD0206489C
:0204E1008F1179
:1004E3001206337FD01205BDAF111205BD120633BC
:1004F3007FD11205BDC2011205278F12120648AF24
:0105030012E5
:0105040022D4
:06011C008B118A12891309
:100122001206337FD01205BDE4FF1205BD1206335D
:100132007FD11205BDD2011205278F1FD2011205F0
:10014200278F1EC2011205278F1D120648531F7FDB
:10015200E51FC4540F75F00AA4FFE51F540F2FAB1F
:1001620017AA18A91912036D531E7FE51EC4540F56
:1001720075F00AA4FFE51E540F2FAB14AA15A91699
:1001820012036DE51D30E633AB1AAA1BA91C740CD1
:1001920012036DE51D30E504D2008002C200531D3A
:1001A2001FE51DC4540F75F00AA4FFE51D540F2F5F
:1001B200AB11AA12A91312036D803AAB1AAA1BA99A
:1001C2001C741812036D531D3FE51DC4540F75F0C6
:1001D2000AA4FFE51D540F2FAB11AA12A913120393
:1001E2006DAB11AA12A913120354C3940C5004C28A
:0701F200008002D200A20010
:0101F90022E3
:1002C9008F118C128D138B14E51475F00A84C454A4
:1002D900F0FFE51475F00A84E5F04FF514AE12AF9E
:1002E900137C007D0A12037FEFC4F8540FC868FB22
:1002F900EEC454F048FAAE12AF137C007D0A120323
:100309007FEC4AF512ED4BF513E51175F00A84C43B
:1003190054F0FFE51175F00A84E5F04FF511E51584
:10032900B40C094311403000034311201206337FF6
:10033900D01205BDE4FF1205BDAF141205BDAF1300
:0B0349001205BDAF111205BD020648F1
:1001FA008B118A1289131206337FD01205BD7F0331
:10020A001205BD1206337FD11205BDD20112052790
:10021A00AB11AA12A913EF12036DD201120527AB73
:10022A0014AA15A916EF12036DD201120527AB17EE
:10023A00AA18A919EF12036DC201120527AB1AAA4F
:10024A001BA91CEF12036D120648AB11AA12A913BF
:10025A00120354540712036DAB14AA15A9161203FC
:10026A0054543F12036DAB14AA15A916120354FF76
:10027A00C4540F75F00AA4FEEF540F2E12036DAB8F
:10028A0017AA18A919120354541F12036DAB17AAFF
:10029A0018A919120354FFC4540F75F00AA4FEEFEB
:1002AA00540F2E12036DAB1AAA1BA91C120354FF7A
:0F02BA00C4540F75F00AA4FEEF540F2E02036D0B
:1003D4008F118D128B13E51275F00A84C454F0FF4B
:1003E400E51275F00A84E5F04FF512E51375F00A8D
:1003F40084C454F0FFE51375F00A84E5F04FF51357
:10040400E51475F00A84C454F0FFE51475F00A8409
:10041400E5F04FF5141206337FD01205BD7F0312A9
:1004240005BDAF111205BDAF121205BDAF13120504
:09043400BDAF141205BD0206481B
:05065400D2A1D2A0229A
:07063300D2A1C2A0C2A12266
:0C061A00D2A0D2A1A2A09201C2A1A20114
:0106260022B1
:1005BD00E4FEEF3392A0D2A1C2A1EF25E0FF0EBE63
:0505CD0008F002061A0F
:07063A00C2A0D2A1C2A1225F
:07064100D2A0D2A1C2A12248
:10052700E4FFFED2A0D2A1EF25E0FF30A0034307EE
:1005370001C2A10EBE08EC30010302063A120641C1
:010547002291
:07064800C2A0D2A1D2A02242
:03000000020627CE
:0C062700787FE4F6D8FD75812002000306
:10035400BB010689828A83E0225002E722BBFE02A7
:09036400E32289828A83E49322DA
:10036D00BB010689828A83F0225002F722BBFE016F
:02037D00F32269
:10037F00BC000BBE0029EF8DF084FFADF022E4CC62
:10038F00F875F008EF2FFFEE33FEEC33FCEE9DEC2B
:10039F00984005FCEE9DFE0FD5F0E9E4CEFD22ED71
:1003AF00F8F5F0EE8420D21CFEADF075F008EF2FBB
:1003BF00FFED33FD4007985006D5F0F222C398FDAC
:0503CF000FD5F0EA2249
:00000001FF
